{
  "contractName": "SimpleSensorMarket",
  "abi": [
    {
      "constant": true,
      "inputs": [],
      "name": "minPayment",
      "outputs": [
        {
          "name": "",
          "type": "uint256"
        }
      ],
      "payable": false,
      "stateMutability": "view",
      "type": "function"
    },
    {
      "constant": true,
      "inputs": [],
      "name": "owner",
      "outputs": [
        {
          "name": "",
          "type": "address"
        }
      ],
      "payable": false,
      "stateMutability": "view",
      "type": "function"
    },
    {
      "inputs": [],
      "payable": false,
      "stateMutability": "nonpayable",
      "type": "constructor"
    },
    {
      "anonymous": false,
      "inputs": [
        {
          "indexed": false,
          "name": "addr",
          "type": "address"
        },
        {
          "indexed": false,
          "name": "index",
          "type": "uint256"
        }
      ],
      "name": "RegisteredSensor",
      "type": "event"
    },
    {
      "anonymous": false,
      "inputs": [
        {
          "indexed": false,
          "name": "sensorId",
          "type": "uint256"
        },
        {
          "indexed": false,
          "name": "callbackUrl",
          "type": "bytes"
        }
      ],
      "name": "TemperatureRequest",
      "type": "event"
    },
    {
      "constant": false,
      "inputs": [
        {
          "name": "addr",
          "type": "address"
        }
      ],
      "name": "registerSensor",
      "outputs": [],
      "payable": false,
      "stateMutability": "nonpayable",
      "type": "function"
    },
    {
      "constant": false,
      "inputs": [
        {
          "name": "sensorId",
          "type": "uint256"
        },
        {
          "name": "callbackUrl",
          "type": "bytes"
        }
      ],
      "name": "requestSensorData",
      "outputs": [],
      "payable": true,
      "stateMutability": "payable",
      "type": "function"
    },
    {
      "constant": true,
      "inputs": [],
      "name": "getTotalSensors",
      "outputs": [
        {
          "name": "",
          "type": "uint256"
        }
      ],
      "payable": false,
      "stateMutability": "view",
      "type": "function"
    },
    {
      "constant": false,
      "inputs": [
        {
          "name": "value",
          "type": "uint256"
        }
      ],
      "name": "withdrawSensorFunds",
      "outputs": [],
      "payable": false,
      "stateMutability": "nonpayable",
      "type": "function"
    },
    {
      "constant": false,
      "inputs": [
        {
          "name": "value",
          "type": "uint256"
        }
      ],
      "name": "setMinPayment",
      "outputs": [],
      "payable": false,
      "stateMutability": "nonpayable",
      "type": "function"
    },
    {
      "constant": true,
      "inputs": [],
      "name": "getMinPayment",
      "outputs": [
        {
          "name": "",
          "type": "uint256"
        }
      ],
      "payable": false,
      "stateMutability": "view",
      "type": "function"
    },
    {
      "constant": true,
      "inputs": [],
      "name": "getOwner",
      "outputs": [
        {
          "name": "",
          "type": "address"
        }
      ],
      "payable": false,
      "stateMutability": "view",
      "type": "function"
    },
    {
      "constant": false,
      "inputs": [
        {
          "name": "to",
          "type": "address"
        },
        {
          "name": "value",
          "type": "uint256"
        }
      ],
      "name": "withdraw",
      "outputs": [],
      "payable": false,
      "stateMutability": "nonpayable",
      "type": "function"
    },
    {
      "constant": false,
      "inputs": [],
      "name": "kill",
      "outputs": [],
      "payable": false,
      "stateMutability": "nonpayable",
      "type": "function"
    }
  ],
  "bytecode": "0x6060604052341561000f57600080fd5b60008054600160a060020a033316600160a060020a031990911617905561055e8061003b6000396000f3006060604052600436106100ae5763ffffffff7c01000000000000000000000000000000000000000000000000000000006000350416631948424a81146100b357806322f03a9e146100d85780632b41a2aa146101255780632e2764991461014457806341c0e1b5146101575780636d427fa31461016a57806377a890cd14610180578063893d20e8146101935780638da5cb5b146101c2578063ec147414146101d5578063f3fef3a3146101eb575b600080fd5b34156100be57600080fd5b6100c661020d565b60405190815260200160405180910390f35b610123600480359060446024803590810190830135806020601f8201819004810201604051908101604052818152929190602084018383808284375094965061021395505050505050565b005b341561013057600080fd5b610123600160a060020a03600435166102f6565b341561014f57600080fd5b6100c66103f9565b341561016257600080fd5b6101236103ff565b341561017557600080fd5b610123600435610426565b341561018b57600080fd5b6100c6610446565b341561019e57600080fd5b6101a661044c565b604051600160a060020a03909116815260200160405180910390f35b34156101cd57600080fd5b6101a661045b565b34156101e057600080fd5b61012360043561046a565b34156101f657600080fd5b610123600160a060020a03600435166024356104e6565b60025490565b60015434101561022257600080fd5b600082815260046020908152604080832054600160a060020a031683526003909152908190206002018054340190557f1c185751867326612a71bbebef459cc24155c2a1973236389c71701ef9af2b3a90839083905182815260406020820181815290820183818151815260200191508051906020019080838360005b838110156102b757808201518382015260200161029f565b50505050905090810190601f1680156102e45780820380516001836020036101000a031916815260200191505b50935050505060405180910390a15050565b60025460010160606040519081016040908152828252600160a060020a03841660208084018290526000838501819052918252600390522081518155602082015160018201805473ffffffffffffffffffffffffffffffffffffffff1916600160a060020a0392909216919091179055604082015160029182015560008381526004602052604090819020805473ffffffffffffffffffffffffffffffffffffffff1916600160a060020a03871617905581546001019091557f5d61ac1d8689c23721288b7ffc4bd4202600c760bcf0f2a94e6011ffe549d0f191508390839051600160a060020a03909216825260208201526040908101905180910390a15050565b60015481565b60005433600160a060020a039081169116141561042457600054600160a060020a0316ff5b565b60005433600160a060020a03908116911614156104435760018190555b50565b60015490565b600054600160a060020a031690565b600054600160a060020a031681565b600160a060020a03338116600090815260036020526040902060010154161561044357600160a060020a0333166000908152600360205260409020600201548190106100ae57600160a060020a03331681156108fc0282604051600060405180830381858888f1935050505015156104e157600080fd5b610443565b60005433600160a060020a039081169116141561052e57600160a060020a03821681156108fc0282604051600060405180830381858888f19350505050151561052e57600080fd5b50505600a165627a7a7230582092a3d0327e15758a744c27f7720bd4c2906762e339e93c63098963960e52d16a0029",
  "source": "pragma solidity ^0.4.18;\n\n/**\n * @title SimpleSensorMarket\n * @dev A contract to sell remote sensor data\n */\ncontract SimpleSensorMarket {\n  address public owner;       // The contract creator\n  uint256 public minPayment;  // Total number of claims\n\n  struct RemoteSensor {\n    uint id;          // Internal contract id\n    address addr;     // Sensor owner account\n    uint256 balance;  // Earned ETH for sensor\n  }\n\n  uint numSensors;  // Incremental id for sensors\n\n  mapping (address => RemoteSensor) sensors;  // Registered sensors\n  mapping (uint => address) sensorsById;      // Registered sensors by numeric id\n\n  event RegisteredSensor(address addr, uint index);            // Emitted when sensor is registered\n  event TemperatureRequest(uint sensorId, bytes callbackUrl);  // Emitted when an account paid for temp data\n\n  modifier onlyOwner() {\n    if (msg.sender == owner) _;\n  }\n\n  modifier onlyRemoteSensor() {\n    if (sensors[msg.sender].addr != address(0x0)) _; // Sensor exists\n  }\n\n  /**\n  @dev constructor sets the owner\n  */\n  function SimpleSensorMarket() public {\n    owner = msg.sender;\n  }\n\n  /**\n  @dev registers a remote sensor with the contract\n  @param addr the address of sensor owner\n  */\n  function registerSensor(address addr) public {\n    uint sensorId = numSensors + 1;\n    sensors[addr] = RemoteSensor(sensorId, addr, 0);\n    sensorsById[sensorId] = addr;\n    numSensors++;\n    RegisteredSensor(addr, sensorId);\n  }\n\n  /**\n  @dev requests actual data from a remote sensor\n  @param sensorId the internal id for the sensor\n  @param callbackUrl the destination url for the sensor data\n  */\n  function requestSensorData(uint sensorId, bytes callbackUrl) payable public {\n    // chk value is greater than or equal to minPayment\n    require(msg.value >= minPayment);\n    // Create event to start off-chain procedures\n    sensors[sensorsById[sensorId]].balance += msg.value;\n    TemperatureRequest(sensorId, callbackUrl);\n  }\n\n  /**\n  @dev returns the total number of registered sensors\n  */\n  function getTotalSensors() public view returns(uint) {\n    return numSensors;\n  }\n\n  /**\n  @dev withdraws any balance held by the sensor\n  @param value the amount of balance to transfer\n  */\n  function withdrawSensorFunds(uint256 value) onlyRemoteSensor public {\n    // should check if there is enough balance\n    if (sensors[msg.sender].balance >= value) {\n      msg.sender.transfer(value);\n    } else {\n      revert();\n    }\n  }\n\n  /**\n  @dev sets minimum payment amount\n  @param value the minimum amount of eth to pay for a sensor data\n  */\n  function setMinPayment(uint256 value) onlyOwner public {\n    minPayment = value;\n  }\n\n  /**\n  @dev returns the minimum payment amount\n  */\n  function getMinPayment() public view returns(uint256) {\n    return minPayment;\n  }\n\n  /**\n  @dev returns current owner's address\n  */\n  function getOwner() public view returns(address) {\n    return owner;\n  }\n\n  /**\n  @dev withdraws any balance held by the contract\n  @param to the address to receive funds\n  @param value the amount of balance to transfer\n  */\n  function withdraw(address to, uint256 value) onlyOwner public {\n    // should check if there is enough balance\n    if (!to.send(value)) revert();\n  }\n\n  /**\n  @dev sends any held funds to the owner\n  */\n  function kill() onlyOwner public {\n    selfdestruct(owner);\n  }\n}\n",
  "sourcePath": "/Users/jo/projects/tair/workshop/exercises/section-2/code/contracts/SimpleSensorMarket.sol",
  "compiler": {
    "name": "solc",
    "version": "0.4.19+commit.c4cbbb05.Emscripten.clang"
  },
  "schemaVersion": "2.0.0",
  "updatedAt": "2018-03-17T15:29:29.301Z"
}