{
  "contractName": "TemperatureValidationGame",
  "abi": [
    {
      "constant": true,
      "inputs": [],
      "name": "owner",
      "outputs": [
        {
          "name": "",
          "type": "address"
        }
      ],
      "payable": false,
      "stateMutability": "view",
      "type": "function"
    },
    {
      "constant": true,
      "inputs": [],
      "name": "tempLimit",
      "outputs": [
        {
          "name": "",
          "type": "address"
        }
      ],
      "payable": false,
      "stateMutability": "view",
      "type": "function"
    },
    {
      "inputs": [],
      "payable": false,
      "stateMutability": "nonpayable",
      "type": "constructor"
    },
    {
      "anonymous": false,
      "inputs": [
        {
          "indexed": false,
          "name": "bounty",
          "type": "uint256"
        },
        {
          "indexed": false,
          "name": "gameId",
          "type": "uint256"
        }
      ],
      "name": "ValidationRequest",
      "type": "event"
    },
    {
      "anonymous": false,
      "inputs": [
        {
          "indexed": false,
          "name": "gameId",
          "type": "uint256"
        },
        {
          "indexed": false,
          "name": "result",
          "type": "uint256"
        },
        {
          "indexed": false,
          "name": "winner",
          "type": "address"
        }
      ],
      "name": "ValidationGameEnded",
      "type": "event"
    },
    {
      "anonymous": false,
      "inputs": [
        {
          "indexed": false,
          "name": "winner",
          "type": "address"
        }
      ],
      "name": "WinnerSelected",
      "type": "event"
    },
    {
      "constant": false,
      "inputs": [
        {
          "name": "sensor",
          "type": "address"
        }
      ],
      "name": "addStake",
      "outputs": [],
      "payable": true,
      "stateMutability": "payable",
      "type": "function"
    },
    {
      "constant": false,
      "inputs": [],
      "name": "validationRequest",
      "outputs": [],
      "payable": true,
      "stateMutability": "payable",
      "type": "function"
    },
    {
      "constant": false,
      "inputs": [
        {
          "name": "gameId",
          "type": "uint256"
        },
        {
          "name": "tempSecret",
          "type": "bytes32"
        }
      ],
      "name": "commitTemperature",
      "outputs": [],
      "payable": false,
      "stateMutability": "nonpayable",
      "type": "function"
    },
    {
      "constant": false,
      "inputs": [
        {
          "name": "gameId",
          "type": "uint256"
        },
        {
          "name": "temp",
          "type": "uint256"
        },
        {
          "name": "salt",
          "type": "uint256"
        }
      ],
      "name": "revealTemperature",
      "outputs": [],
      "payable": false,
      "stateMutability": "nonpayable",
      "type": "function"
    },
    {
      "constant": true,
      "inputs": [],
      "name": "getOwner",
      "outputs": [
        {
          "name": "",
          "type": "address"
        }
      ],
      "payable": false,
      "stateMutability": "view",
      "type": "function"
    },
    {
      "constant": false,
      "inputs": [
        {
          "name": "to",
          "type": "address"
        },
        {
          "name": "value",
          "type": "uint256"
        }
      ],
      "name": "withdraw",
      "outputs": [],
      "payable": false,
      "stateMutability": "nonpayable",
      "type": "function"
    },
    {
      "constant": false,
      "inputs": [],
      "name": "kill",
      "outputs": [],
      "payable": false,
      "stateMutability": "nonpayable",
      "type": "function"
    }
  ],
  "bytecode": "0x6060604052341561000f57600080fd5b60008054600160a060020a033316600160a060020a03199182161790915560018054909116601e179055610a41806100486000396000f3006060604052600436106100985763ffffffff7c010000000000000000000000000000000000000000000000000000000060003504166310767904811461009d57806341c0e1b5146100b35780634ba3ca9d146100c65780635c887b5f146100e25780637f3fc6fd146100fb578063893d20e8146101035780638da5cb5b1461013257806394f6bdf514610145578063f3fef3a314610158575b600080fd5b6100b1600160a060020a036004351661017a565b005b34156100be57600080fd5b6100b1610196565b34156100d157600080fd5b6100b16004356024356044356101bd565b34156100ed57600080fd5b6100b1600435602435610324565b6100b16103a5565b341561010e57600080fd5b6101166104c0565b604051600160a060020a03909116815260200160405180910390f35b341561013d57600080fd5b6101166104d0565b341561015057600080fd5b6101166104df565b341561016357600080fd5b6100b1600160a060020a03600435166024356104ee565b600160a060020a03166000908152600460205260409020349055565b60005433600160a060020a03908116911614156101bb57600054600160a060020a0316ff5b565b600160a060020a0333166000908152600660205260409081902054908390839051918252602082015260409081019051908190039020146101fd57600080fd5b600154600160a060020a031682106102795760008381526003602081905260409091209081018054600190810190915560069091018054909181016102428382610920565b506000918252602090912001805473ffffffffffffffffffffffffffffffffffffffff191633600160a060020a03161790556102dd565b6000838152600360205260409020600481018054600190810190915560079091018054909181016102aa8382610920565b506000918252602090912001805473ffffffffffffffffffffffffffffffffffffffff191633600160a060020a03161790555b600083815260036020526040902060020180546000190190819055151561031f576000838152600360205260409020600260019091015561031d8361053a565b505b505050565b6000828152600360205260409020600101546002141561034357600080fd5b60008281526003602052604090206001015415156103705760008281526003602052604090206001908101555b600160a060020a0333166000908152600660209081526040808320939093559281526003909252902060020180546001019055565b60006103af610944565b6103b7610944565b600254600101925061010060405190810160409081526000808352602080840182905282840182905260608401829052608084018290523460a085015260c0840186905260e084018590528682526003905220815181556020820151816001015560408201518160020155606082015181600301556080820151816004015560a0820151816005015560c08201518160060190805161045a929160200190610956565b5060e082015181600701908051610475929160200190610956565b5050600280546001019055507f86822b633797bb59e3d8dcb1ff7e969f9e3e1ca3ca8e9d63b91e33eb54e14640348460405191825260208201526040908101905180910390a1505050565b600054600160a060020a03165b90565b600054600160a060020a031681565b600154600160a060020a031681565b60005433600160a060020a039081169116141561053657600160a060020a03821681156108fc0282604051600060405180830381858888f19350505050151561053657600080fd5b5050565b600081815260036020819052604082206004810154910154829182918291829182919011156106d657600091505b60008781526003602052604090206006015482101561065a57600087815260036020526040812060060180546004929190859081106105a357fe5b6000918252602080832090910154600160a060020a031683528281019390935260409182018120548a82526003909352908120600601805492965086926004929190869081106105ef57fe5b6000918252602080832090910154600160a060020a03168352820192909252604001902054111561064f57600087815260036020526040902060060180548390811061063757fe5b600091825260209091200154600160a060020a031694505b816001019150610568565b6106d1600360008981526020019081526020016000206007018054806020026020016040519081016040528092919081815260200182805480156106c757602002820191906000526020600020905b8154600160a060020a031681526001909101906020018083116106a9575b50505050506108d6565b61083e565b5060005b6000878152600360205260409020600701548110156107c9576000878152600360205260408120600701805460049291908490811061071557fe5b6000918252602080832090910154600160a060020a031683528281019390935260409182018120548a825260039093529081206007018054929650869260049291908590811061076157fe5b6000918252602080832090910154600160a060020a0316835282019290925260400190205411156107c15760008781526003602052604090206007018054829081106107a957fe5b600091825260209091200154600160a060020a031694505b6001016106da565b61083e600360008981526020019081526020016000206006018054806020026020016040519081016040528092919081815260200182805480156106c757602002820191906000526020600020908154600160a060020a031681526001909101906020018083116106a95750505050506108d6565b6000878152600360208181526040808420600580820154600160a060020a038c16875290845282862080549091019055938b9052919052908490557fa2f5a1ca67de1f99f2f38929199bd1dab33b04f32e6aaef1eecf1090e1a8483890889085908890519283526020830191909152600160a060020a03166040808301919091526060909101905180910390a1509295945050505050565b60005b8151811015610536576000600460008484815181106108f457fe5b90602001906020020151600160a060020a031681526020810191909152604001600020556001016108d9565b81548183558181151161031f5760008381526020902061031f9181019083016109ca565b60206040519081016040526000815290565b8280548282559060005260206000209081019282156109ba579160200282015b828111156109ba578251825473ffffffffffffffffffffffffffffffffffffffff1916600160a060020a039190911617825560209290920191600190910190610976565b506109c69291506109e4565b5090565b6104cd91905b808211156109c657600081556001016109d0565b6104cd91905b808211156109c657805473ffffffffffffffffffffffffffffffffffffffff191681556001016109ea5600a165627a7a723058201289f97310d81405969a3c2dfc0bb674aa13f6689b649d2e1a5015247d74d78d0029",
  "source": "pragma solidity ^0.4.18;\n\n/**\n * @title Simplified Validation Game\n * @dev know the true temperature for a particular area in a specific moment\n */\ncontract TemperatureValidationGame {\n  address public owner;         // The contract creator\n  address public tempLimit;     // Example parameter for game condition\n  /* uint256 totalSlashedBalance;  // The amount of eth slashed from all sensors */\n\n  struct ValidationGame {\n    uint result;           // 0 = condition not met, 1 = condition met\n    uint status;           // 0 = idle, 1 = commited, 2 = revealed\n    uint sensors;          // The amount of participants in the game\n    uint conditionMet;     // Amount of votes who affirm condition\n    uint conditionNotMet;  // Amount of votes who affirm condition is not met\n    uint256 bounty;        // Amount of ETH for winner\n    address[] met;         // Addresses who committed the condition was met\n    address[] notMet;      // Addresses who committed the condition was NOT met\n  }\n\n  uint numGames;  // Incremental id for games\n\n  mapping (uint => ValidationGame) games;       // Registered sensors\n  mapping (address => uint256) stakedSensors;   // Staked sensors\n  mapping (address => uint256) winnerBalances;  // Winner balances\n  mapping (address => bytes32) sensorCommits;   // The committed reading for the sensors\n\n  event ValidationRequest(uint256 bounty, uint gameId);                 // Emitted when a validation game is requested\n  event ValidationGameEnded(uint gameId, uint result, address winner);  // Emitted when game is finished\n  event WinnerSelected(address winner);                                 // Emitted when winner is selected\n\n  modifier onlyOwner() {\n    if (msg.sender == owner) _;\n  }\n\n  /**\n  @dev constructor sets the owner\n  */\n  function TemperatureValidationGame() public {\n    owner = msg.sender;\n    tempLimit = 30;\n  }\n\n  /**\n  @dev adds stake (ETH) to a sensor address\n  anyone can be a sensor, in reality this should be\n  matched against a registry or another contract\n  @param sensor the address of the sensor or owner\n  */\n  function addStake(address sensor) payable public {\n    // should add to balance not just overwrite\n    stakedSensors[sensor] = msg.value;\n  }\n\n  /**\n  @dev creates a validation request to start a game,\n  in the real-world we would specify a location or place of interest\n  */\n  function validationRequest() payable public {\n    uint gameId = numGames + 1;\n    address[] memory met;\n    address[] memory notMet;\n    games[gameId] = ValidationGame(0, 0, 0, 0, 0, msg.value, met, notMet);\n    numGames++;\n    ValidationRequest(msg.value, gameId);\n  }\n\n  /**\n  @dev commit temperature reading for a game,\n  @param gameId the game to commit to\n  @param tempSecret as a hash\n  */\n  function commitTemperature(uint gameId, bytes32 tempSecret) public {\n    // game already claimed\n    require(games[gameId].status != 2);\n\n    if (games[gameId].status == 0) {\n      // switch committed flag\n      games[gameId].status = 1;\n    }\n    // sensor can play one game at a time\n    sensorCommits[msg.sender] = tempSecret;\n    games[gameId].sensors += 1;\n  }\n\n\n  /**\n  @notice should have a min block span to allow a reveal\n  @dev reveal temperature reading for a game,\n  @param gameId the game for which to to reveal vote\n  @param temp as a uint\n  @param salt used to create the hash\n  */\n  function revealTemperature(uint gameId, uint temp, uint salt) public {\n    // check against commit\n    require(keccak256(temp, salt) == sensorCommits[msg.sender]);\n\n    // aggregate for or against condition\n    // for our example we'll check for above 70deg\n    if (uint(temp) >= uint(tempLimit)) {\n      games[gameId].conditionMet += 1;\n      games[gameId].met.push(msg.sender);\n    } else {\n      games[gameId].conditionNotMet += 1;\n      games[gameId].notMet.push(msg.sender);\n    }\n    // subtract the revealing sensor\n    games[gameId].sensors -= 1;\n    if (games[gameId].sensors == 0) {\n      // game ended, every sensor revealed\n      games[gameId].status = 2;\n      // need to pick a winner and slash the others\n      selectWinner(gameId);\n    }\n  }\n\n  /**\n  @dev selects the winner according to stake\n  @param gameId the game id\n  */\n  function selectWinner(uint gameId) internal returns(address) {\n    // Loop throught winning condition addresses\n    address leader;\n    uint256 leaderBalance = 0;\n    uint result;\n    if (games[gameId].conditionMet > games[gameId].conditionNotMet) {\n      for (uint i=0;i<games[gameId].met.length;++i) {\n        // check stake amount\n        leaderBalance = stakedSensors[games[gameId].met[i]];\n        if (stakedSensors[games[gameId].met[i]] > leaderBalance) {\n          leader = games[gameId].met[i];\n        }\n      }\n      slashPlayers(games[gameId].notMet);\n    } else {\n      for (uint j=0;j<games[gameId].notMet.length;++j) {\n        // check stake amount\n        leaderBalance = stakedSensors[games[gameId].notMet[j]];\n        if (stakedSensors[games[gameId].notMet[j]] > leaderBalance) {\n          leader = games[gameId].notMet[j];\n        }\n      }\n      slashPlayers(games[gameId].met);\n    }\n    // Add balance to winner\n    winnerBalances[leader] += games[gameId].bounty;\n    // St result for game\n    games[gameId].result = result;\n    ValidationGameEnded(gameId, result, leader);\n    return leader;\n  }\n\n  /**\n  @dev slashes losing player balances\n  @param losers addresses\n  */\n  function slashPlayers(address[] losers) internal {\n    for (uint i=0;i<losers.length;++i) {\n      // slash the whole balance\n      stakedSensors[losers[i]] = 0;\n    }\n  }\n\n  /**\n  @dev returns current owner's address\n  */\n  function getOwner() public view returns(address) {\n    return owner;\n  }\n\n  /**\n  @dev withdraws any balance held by the contract\n  @param to the address to receive funds\n  @param value the amount of balance to transfer\n  */\n  function withdraw(address to, uint256 value) onlyOwner public {\n    // should check if there is enough balance\n    if (!to.send(value)) revert();\n  }\n\n  /**\n  @dev sends any held funds to the owner\n  */\n  function kill() onlyOwner public {\n    selfdestruct(owner);\n  }\n}\n",
  "sourcePath": "/Users/jo/projects/tair/workshop/exercises/section-2/code/contracts/TemperatureValidationGame.sol",
  "compiler": {
    "name": "solc",
    "version": "0.4.19+commit.c4cbbb05.Emscripten.clang"
  },
  "schemaVersion": "2.0.0",
  "updatedAt": "2018-03-17T15:30:18.201Z"
}